:020000042010CA
:100000009711F05F93818121970200009382820112
:100010007390523093021000638402007350107C7E
:100020009702000093824211739052301301000036
:1000300063140100138181CC732540F181421303C5
:100040000040137101FF6385A2001A918502D5BF9C
:10005000970000009380C00763830000829073259F
:1000600040F181450146ED209300000063830000CC
:100070008290970200009382C20073905230032353
:100080000000F5BF000000008280A14673B3063077
:10009000914263C555001376350011CA230005004F
:1000A0000505FD15E347B0FE731003308280232061
:1000B00005001105F115E34EB0FC7310033082808A
:1000C000232003001103E34D73FE82800684970210
:1000D000F0DF938222F3638C02049702F0DF9382B5
:1000E00062F2F32740F1A14673B006300A8397030A
:1000F000F0DF938323318A9363037300D1376398CE
:1001000057021703F05F1303E3EF9713F05F938336
:10011000E392630373006D371703F05F130383EEFD
:100120009703F05F938303EE63037300513FA28054
:1001300082800000F322203473231034F323303400
:10014000D5BF411122C6000801003244410182801E
:1001500006849711F05F9381610C93020000631194
:10016000550E97620000938262851703F05F1303B8
:1001700063E99713F05F9383638C638C6200635A27
:10018000730003A5020091022320A3001103E34A98
:1001900073FE97120000938262D41703F05F13037B
:1001A00063E69703F05F9383E3E5638C6200635A31
:1001B000730003A5020091022320A3001103E34A68
:1001C00073FE0F10000097120000938222D11703D4
:1001D000F05F130323E39703F05F9383A3E2638C41
:1001E0006200635A730003A5020091022320A3005A
:1001F0001103E34A73FE0F1000001713F05F13039F
:10020000E3839383C18B635773002320030011039F
:10021000E34D73FE1712F05F1302428211C2029681
:1002200017150000130585EFEF001066EF00F0686A
:10023000171500001305A516EF001065EF10A014A8
:100240000937FD5673B0463073B04634F32710308B
:10025000372704007D8F09C773B0363073B026305E
:10026000370704007D8F19C373B006184167130761
:100270008702F98F89CBF32700300967D98F7390F4
:100280000730735030000545970500009385050E33
:10029000170600001306C60D3120EF00905FA28004
:1002A00082808280411106C2F32240F113030000D4
:1002B0006385620073005010F5BFEF00F059924063
:0402C00041018280F6
:0C02C800D4021020000310202A03102094
:1002D400011106CE22CC0010EF30D0512326A4FE0B
:1002E4008327C4FE99C7B7170080138587A0EF3012
:1002F40030590100F240624405618280011106CE4A
:1003040022CC0010EF30104F2326A4FE8325C4FE18
:10031400B7170080138587A0EF50003A0100F24020
:10032400624405618280411106C622C40008F16757
:1003340093850720B71700801385079DEF50004A67
:0A0344000100B24022444101828012
:100350005541525430206563686F2072656164793D
:100360000D0A0000000000007003102000000000D3
:100370006C6962676C6F737300000000D215102007
:10038000781710205C17102000000000000000000B
:100390006C1A1020A01A10205A16102034171020A2
:1003A000CC1710207E181020000000000000000074
:1003B000000000000000000000000000000000003D
:1003C0000000000000000000301910200615102069
:1003D000000000000000000000000000000000001D
:1003E000762C1020DC2C1020DC2C1020882C1020E7
:1003F000DC2C1020DC2C1020DC2C10209A2C10205F
:10040000DC2C1020DC2C1020DC2C1020AC2C10203C
:10041000DC2C1020DC2C1020DC2C1020DC2C1020FC
:10042000BE2C1020BE2C1020BE2C1020BE2C102064
:10043000BE2C1020BE2C1020BE2C1020BE2C102054
:10044000BE2C1020BE2C1020BE2C1020BE2C102044
:10045000BE2C1020BE2C1020BE2C1020BE2C102034
:100460003E2D10206E30102054301020000000006F
:10047000000000000000000000000000202E1020FE
:1004800000000000003010202A3010200000000082
:10049000000000000000000000000000000000005C
:1004A000000000000000000000000000BE3010202E
:1004B000000000000000000000000000000000003C
:1004C00000000000DA3010204A3110209031102056
:1004D000F63110206C321020863210209A32102013
:1004E000B4321020C83210202A3310208C33102050
:1004F000EC3310200C3410205234102080341020A3
:100500009E341020BE341020B438102000000000AB
:1005100000000000000000000000000000000000DB
:1005200000000000043A102000000000C23A102031
:10053000103B102000000000000000008E3B102047
:100540005E3B102026371020C4361020000000002B
:10055000000000000000000000000000B63B10207A
:10056000503C1020EC3C1020603D102001000000A9
:1005700020000000001BB70000366E0101000000E3
:100580001F000000030000003F0000000100000009
:100590002000000000366E01006CDC020300000049
:1005A0001F000000020000003F00000001000000EA
:1005B00010000000808D5B00001BB70000000000F1
:1005C0001F000000030000003F00000001000000C9
:1005D00010000000001BB70000366E010100000093
:1005E0001F000000020000003F00000001000000AA
:1005F0001000000000366E01006CDC0203000000F9
:100600001F000000020000001F00000001000000A9
:1006100008000000808D5B00001BB7000000000098
:100620001F000000030000001F0000000100000088
:1006300008000000001BB70000366E01010000003A
:100640001F000000020000001F0000000100000069
:100650000800000000366E01006CDC0203000000A0
:100660001F000000020000000F0000000100000059
:1006700004000000808D5B00001BB700000000003C
:100680001F000000030000000F0000000100000038
:1006900004000000001BB70000366E0101000000DE
:1006A0001F000000020000000F0000000100000019
:1006B0000400000000366E01006CDC020300000044
:1006C0001F00000002000000070000000100000001
:1006D00002000000808D5B00001BB70000000000DE
:1006E0001F000000020000000F00000001000000D9
:1006F00002000000001BB70000366E010100000080
:100700001F000000010000000F00000001000000B9
:100710000200000000366E01006CDC0203000000E5
:100720001F000000010000000700000002000000A0
:1007300001000000808D5B00001BB700000000007E
:100740001F00000001000000070000000200000080
:1007500001000000001BB70000366E010100000020
:100760001F00000001000000030000000200000064
:100770000100000000366E01006CDC020300000086
:100780001F00000003000000FFFFFFFF0400000047
:1007900001000000808D5B00001BB700000000001E
:1007A0001F00000003000000000000000400000023
:1007B00001000000001BB70000366E0101000000C0
:1007C0001F00000003000000FFFFFFFF0400000007
:1007D0000100000000366E01006CDC020300000026
:1007E0001F00000002000000FFFFFFFF06000000E6
:1007F00001000000808D5B00AAC2A2000000000082
:1008000023000000010000000200000006000000BC
:1008100001000000AAC2A200001BB70000000000F7
:100820001700000003000000FFFFFFFF06000000AC
:1008300001000000001BB7000024F40001000000CC
:100840002F00000003000000FFFFFFFF0600000074
:10085000010000000024F40080A812010100000043
:100860001700000002000000FFFFFFFF060000006D
:100870000100000080A8120155854501020000001A
:100880002300000002000000FFFFFFFF080000003F
:1008900001000000808D5B00001BB700000000001D
:1008A0001F00000003000000FFFFFFFF0800000022
:1008B00001000000001BB70000366E0101000000BF
:1008C0001F00000002000000FFFFFFFF0800000003
:1008D0000100000000366E01006CDC020300000025
:1008E0001F00000001000000FFFFFFFF0A000000E2
:1008F00001000000808D5B00007C92000000000081
:100900002700000003000000FFFFFFFF0A000000B7
:1009100001000000007C9200001BB70000000000F6
:100920001300000002000000FFFFFFFF0A000000AC
:1009300001000000001BB70000F8240101000000C6
:100940002700000002000000FFFFFFFF0A00000078
:100950000100000000F8240100366E0101000000D3
:100960001300000001000000FFFFFFFF0A0000006D
:100970000100000000366E0100F049020300000093
:100980002700000001000000FFFFFFFF0C00000037
:1009900001000000808D5B0000127A000000000062
:1009A0002F00000003000000FFFFFFFF0C0000000D
:1009B0000100000000127A00001BB70000000000D8
:1009C0001700000002000000FFFFFFFF0C00000006
:1009D00001000000001BB7000024F400010000002B
:1009E0002F00000002000000FFFFFFFF0C000000CE
:1009F000010000000024F40000366E010100000038
:100A00001700000001000000FFFFFFFF0C000000C6
:100A10000100000000366E0180C3C9010300000020
:100A20002F00000001000000FFFFFFFF0C0000008E
:100A30000100000080C3C9010048E8010300000074
:100A40002F00000001000000FFFFFFFF0E0000006C
:100A500001000000808D5B00B6A16800000000006E
:100A60003700000003000000FFFFFFFF0E00000042
:100A700001000000B7A16800001BB70000000000E3
:100A80001B00000002000000FFFFFFFF0E0000003F
:100A900001000000001BB7006D43D1000100000001
:100AA0003700000002000000FFFFFFFF0E00000003
:100AB000010000006E43D10000366E01010000000D
:100AC0001B00000001000000FFFFFFFF0E00000000
:100AD0000100000000366E01DB86A2010300000069
:100AE0003700000001000000FFFFFFFF10000000C2
:100AF00001000000808D5B00001BB70000000000BB
:100B00001F00000002000000FFFFFFFF10000000B8
:100B100001000000001BB70000366E01010000005C
:100B20001F00000001000000FFFFFFFF1200000097
:100B300001000000808D5B00AAC2A200000000003E
:100B40002300000002000000FFFFFFFF1200000072
:100B500001000000ABC2A200001BB70000000000B3
:100B60001100000001000000FFFFFFFF1200000065
:100B700001000000001BB700558545010100000081
:100B80002300000001000000FFFFFFFF1400000031
:100B900001000000808D5B00007C920000000000DE
:100BA0002700000002000000FFFFFFFF140000000C
:100BB00001000000007C9200001BB7000000000054
:100BC0001300000001000000FFFFFFFF1400000001
:100BD00001000000001BB70000F824010100000024
:100BE0002700000001000000FFFFFFFF16000000CB
:100BF00001000000808D5B00E82A850000000000F5
:100C00002B00000002000000FFFFFFFF16000000A5
:100C100001000000E92A8500001BB7000000000069
:100C20001500000001000000FFFFFFFF160000009C
:100C300001000000001BB700D1550A0101000000AF
:100C40002B00000001000000FFFFFFFF1800000064
:100C500001000000808D5B0000127A00000000009F
:100C60002F00000002000000FFFFFFFF180000003F
:100C70000100000000127A00001BB7000000000015
:100C80001700000001000000FFFFFFFF1800000038
:100C900001000000001BB7000024F4000100000068
:100CA0002F00000001000000FFFFFFFF1A000000FE
:100CB00001000000808D5B0027AE70000000000086
:100CC0003300000002000000FFFFFFFF1A000000D9
:100CD0000100000028AE7000001BB70000000000FB
:100CE0001900000001000000FFFFFFFF1A000000D4
:100CF00001000000001BB7006658E1000100000081
:100D00003300000001000000FFFFFFFF1C00000097
:100D100001000000808D5B00B6A1680000000000AB
:100D20003700000002000000FFFFFFFF1C00000072
:100D300001000000B7A16800001BB7000000000020
:100D40001B00000001000000FFFFFFFF1C0000006F
:100D500001000000001BB7006D43D100010000003E
:100D60003700000001000000FFFFFFFF1E00000031
:100D700001000000808D5B0000A861000000000001
:100D80003B00000002000000FFFFFFFF1E0000000C
:100D90000100000000A86100001BB7000000000077
:100DA0001D00000001000000FFFFFFFF1E0000000B
:100DB00001000000001BB7000050C300010000004C
:100DC0003B00000001000000FFFFFFFF20000000CB
:100DD00001000000808D5B00001BB70000000000D8
:100DE0001F00000001000000FFFFFFFF84401020F3
:100DF00028411020F0441020D84B1020564C1020D1
:100E00006E4C10208A4C1020D84C1020BC4C102066
:100E1000F44C10202A4D1020184F1020DE4D1020C9
:100E2000F64D1020124E1020604E1020444E10201F
:100E30007C4E1020B24E10200C491020CE481020BD
:100E40005049102078491020A2491020E64910206E
:100E5000244A1020644A1020AA4A1020EA4A10208E
:100E60004C4B1020964B10209C4D1020244F1020EE
:100E7000444F102030551020D2521020B451102071
:100E80001253102068531020885310209C501020BB
:100E9000BA501020D8501020105110204651102068
:100EA0007E511020E25110202A521020585210205A
:100EB000A252102000000000E23D1020663E1020EB
:100EC000E23E1020563F102064461020924610202B
:080ED000625910208059102026
:100F0000011122CE0010C1672326F4FEB7070200AC
:100F10002324F4FEB72701109387C70394430327C4
:100F2000C4FE832784FED98F13C7F7FFB7270110AC
:100F30009387C703758F98C3B727011093878703DB
:100F400094430327C4FE832784FE5D8FB7270110D7
:100F500093878703558F98C3B72701109107944350
:100F6000B727011091070327C4FE558F98C3B727F1
:100F70000110A1079443B7270110A107032784FE9E
:100F8000558F98C3B7370110E1071307A00898C31E
:100F9000B7370110A107054798C3B7370110B1074C
:100FA000054798C3B7370110C10723A00700010008
:100FB000724405618280011122CE0010AA87A30726
:100FC000F4FE0100B73701109C43E3CD07FEB737AD
:100FD00001100347F4FE98C301007244056182804A
:100FE000011122CE0010B737011091079C43232630
:100FF000F4FE8327C4FE63D40700FD5729A083278E
:10100000C4FE93F7F70F3E8572440561828001119B
:1010100006CE22CC00102326A4FE25A08327C4FEE2
:1010200003C70700A9476314F700354569378327CD
:10103000C4FE138717002326E4FE83C707003E85FE
:101040009D3F8327C4FE83C70700E9FB0100010021
:10105000F240624405618280011106CE22CC00106C
:101060004535B7071020138507355537953F23269B
:10107000A4FE8327C4FEE3CB07FE8327C4FE93F7B9
:10108000F70F3E850D3FDDB7AA8581460146014534
:101090007DA8411122C406C69707000093876713F5
:1010A0002A8499C3814525229707F05F83A7079972
:1010B00091C382972285EF40D00E411122C426C2EF
:1010C00017F4FFFF1304842097F4FFFF9384042098
:1010D000818C4AC006C6898401496315990217F4B8
:1010E000FFFF1304A41E97F4FFFF9384241E818C3A
:1010F00089840149631D9900B24022449244024907
:10110000410182801C40050911048297F9B71C40F7
:10111000050911048297F9BF411122C426C217F4B0
:10112000FFFF1304A41B97F4FFFF9384241B058C7B
:1011300006C6098411E4B2402244924441018280EF
:101140007D1493172400A6979C438297E5B7170751
:10115000F05F1307E78E1C43AA8885E39707F05FCB
:101160009387C78E1CC31307000001C7184323A42D
:10117000E7089707F05F9387678DD8437D487D55D3
:101180006346E804638D080203A887086300080427
:1011900013152700429510C1032308100546331686
:1011A000E6003363C300232068102320D508894656
:1011B0006397D80083264810D18E2322D810930637
:1011C00017000A07D4C3BA978CC70145828079718A
:1011D00056CA5AC85EC662C406D622D426D24AD09F
:1011E0004ECE52CC66C22A8BAE8A970BF05F938BA1
:1011F0002B85054C83A40B0081CCC04083A98408B7
:101200001309F4FF0A04338A89002694635F0900F6
:10121000B250225492540259F249624AD24A424B85
:10122000B24B224C924C45618280638C0A006396DB
:1012300009007D19711A7114D1BF8327CA07E39A77
:1012400057FFD8405C407D176318270323A2240171
:10125000EDD383AC44006388090083A609103317DB
:101260002C01F98E89EE8297D84083A70B00E313F7
:1012700097F9E380F4FCBDBF23220400D1BF83A60D
:1012800049108325CAFF758F01E75A858297E9BF08
:101290002E858297D1BF011106CE22CC0010B71740
:1012A000008083A707A4A9EFB7170080054723A0F4
:1012B000E7A4B70710201387472DB707102093879F
:1012C000872C63F1E704B70710209387872C232628
:1012D000F4FE31A88327C4FE9C432324F4FE832715
:1012E00084FE82978327C4FE91072326F4FE0327FA
:1012F000C4FEB70710209387472DE31DF7FC21A0FC
:10130000010011A00100F2406244056182800111D8
:1013100006CE22CC0010B717008083A747A4A9EF00
:10132000B7170080054723A2E7A4B707102013874B
:10133000872DB70710209387872D63F1E704B70740
:1013400010209387872D2326F4FE31A88327C4FE1F
:101350009C432324F4FE832784FE82978327C4FEC4
:1013600091072326F4FE0327C4FEB70710209387B6
:10137000872DE31DF7FC21A0010011A00100F24020
:10138000624405618280411106C622C400082137EB
:101390000100B240224441018280411106C622C4AC
:1013A0000008B5370100B24022444101828001119A
:1013B00022CE00102326A4FE0327C4FEB717008008
:1013C0009387C7A16315F700B707000211A08147F3
:1013D0003E85724405618280011122CE00102326D1
:1013E000A4FE0327C4FEB71700809387C7A1631428
:1013F000F700894711A081473E85724405618280CC
:10140000011122CE00102326A4FE2324B4FE83273C
:1014100084FE91E7B70700809387870221A80327FE
:1014200084FE85476317F700B7070080938787021C
:1014300011A081473E85724405618280011122CE50
:1014400000102326A4FE2324B4FE832784FE99E300
:101450008D4709A8032784FE85476314F7009D473D
:1014600011A081473E857244056182805D7186C608
:10147000A2C4CAC2CEC052DE56DC5ADA5ED862D6E8
:1014800066D48008232EA4FA8327C4FB3E85053743
:101490002326A4FC0327C4FCB167F117BA979C4329
:1014A0002324F4FC0327C4FCB167E117BA979C43DB
:1014B0002322F4FC0327C4FCB167F117BA979C43BD
:1014C000032784FCE318F7FC832784FC3E8C814CC3
:1014D00093190C000149832744FC3E8A814A336BEF
:1014E0004901B3EB59015A87DE873A85BE85B6407C
:1014F000264416498649725AE25A525BC25B325CF4
:10150000A25C61618280797106D622D44AD24ED023
:101510000018232EA4FC232CB4FC2328C4FC232A6B
:10152000D4FC8327C4FD2326F4FE8327C4FE3E8516
:10153000BD3D2324A4FE832784FD8E073E87832799
:1015400084FE3E9791679107BA973E87FD571CC36B
:10155000832784FD8E073E87832784FE3E9791670D
:10156000BA973E87832704FD1CC3832744FD13D904
:1015700007008149832784FD8E073E87832784FEE9
:101580003E9791679107BA974A8798C381473E85EE
:10159000B25022541259825945618280011106CEFF
:1015A00022CC0010232604FEF32740F12326F4FE6C
:1015B0008327C4FE3E85EF40401D2324A4FE03255F
:1015C00084FEEF40201AAA873E85F24062440561FE
:1015D0008280397106DE22DC80002326A4FC0325EC
:1015E000C4FCDD3B2324A4FE8327C4FC2322F4FE99
:1015F000832744FEDC43A9EF232604FE81A0832534
:10160000C4FE0325C4FCED3B2320A4FE8325C4FEB9
:101610000325C4FC2535232EA4FC832704FE9C430C
:10162000DC4F8326C4FC01468325C4FD032504FE4C
:1016300082978327C4FE85072326F4FE0327C4FE72
:10164000832784FEE34DF7FA832744FE0547D8C37A
:101650000100F250625421618280397106DE22DC81
:1016600080002326A4FC2324B4FC2322C4FC2320D2
:10167000D4FCFD572326F4FEEF10C0452320A4FE22
:10168000232404FE213F232EA4FC0325C4FCA933FC
:10169000232CA4FC032704FE85476308F700832757
:1016A00004FE81C78327C4FE49A0232204FE91A023
:1016B000832544FE0325C4FC5133232AA4FC83253F
:1016C00044FE0325C4FC2D3B2324A4FE0327C4FDB4
:1016D000832784FE6318F700032784FC832744FDD7
:1016E0006300F702232404FE832744FE8507232298
:1016F000F4FE032744FE832784FDE34BF7FA11A091
:101700000100832784FE85C3832784FE9C43DC4F2E
:10171000832604FC032644FC832584FC032584FEE5
:1017200082972326A4FE8327C4FE3E85F25062548E
:1017300021618280797122D60018232EA4FC232CEB
:10174000B4FC232AC4FC2328D4FCFD572326F4FE32
:101750008327C4FE3E85325445618280011106CE46
:1017600022CC00102326A4FEEF10C036AA873E85A7
:10177000F240624405618280797106D622D4001855
:10178000232EA4FC232CB4FCFD572326F4FE39356C
:101790002324A4FE832784FE9DC3032784FD85475D
:1017A00063EEE700832784FE9C43DC43832584FDAE
:1017B000032584FE82972326A4FE11A0010083271F
:1017C000C4FE3E85B250225445618280397106DEE6
:1017D00022DC80002326A4FC2324B4FCFD5723260E
:1017E000F4FE832784FCC9C7232404FE453B232041
:1017F000A4FE0325C4FCCD36232EA4FC232204FE24
:1018000091A0832544FE0325C4FC0D39232CA4FCA0
:10181000832544FE0325C4FCE5362324A4FE0327C8
:1018200004FE832784FE6318F700032784FC8327C4
:1018300084FD6300F702232404FE832744FE85070A
:101840002322F4FE032744FE8327C4FDE34BF7FA6B
:1018500011A00100832784FE81CF832784FE9C434F
:10186000DC53832584FC032584FE82972326A4FE73
:101870008327C4FE3E85F250625421618280397113
:1018800006DE22DC80002326A4FC2324B4FCFD57C2
:101890002326F4FE832784FCC9C7232404FEFD39D4
:1018A0002320A4FE0325C4FC053E232EA4FC2322F2
:1018B00004FE91A0832544FE0325C4FC4136232C5D
:1018C000A4FC832544FE0325C4FC1D3E2324A4FE62
:1018D000032704FE832784FE6318F700032784FC94
:1018E000832784FD6300F702232404FE832744FE3C
:1018F00085072322F4FE032744FE8327C4FDE34B20
:10190000F7FA11A00100832784FE81CF832784FE8C
:101910009C439C57832584FC032584FE82972326C1
:10192000A4FE8327C4FE3E85F2506254216182806A
:10193000797106D622D40018232EA4FC232CB4FCE3
:10194000232AC4FCFD572326F4FE8327C4FD232449
:10195000F4FE0325C4FDA13C2322A4FE032784FD3D
:1019600091476300F70C032784FD914763C0E70E9E
:10197000032784FD8D476305F706032784FD8D4704
:1019800063C6E70C032784FD85476308F700032738
:1019900084FD89476302F70255A8832744FDCDCB18
:1019A000032584FEE1342A87AE87832644FD98C24E
:1019B000DCC2232604FE69A8832744FDC1CF832708
:1019C00044FD9C432320F4FE832704FE8A073E87C0
:1019D000832744FEBA9723A00700232604FE9DA870
:1019E000832744FDB5CB832744FD9C432320F4FE8D
:1019F000832704FE8A073E87832744FEBA973E87E3
:101A000085471CC30F008004832704FE8A073E8796
:101A1000832744FEBA979C432326F4FE232604FE24
:101A200025A8232604FE832744FD8DCB832744FD70
:101A30009C432320F4FE832704FE8A073E878327E6
:101A400044FEBA979C432326F4FE09A8010001A88E
:101A5000010031A0010021A0010011A00100832795
:101A6000C4FE3E85B250225445618280797106D60B
:101A700022D40018232EA4FC232CB4FCEF30D05326
:101A8000AA872326F4FE9307C4FE3E8689450325D4
:101A9000C4FD793DAA873E85B250225445618280BB
:101AA000797106D622D40018232EA4FC232CB4FC72
:101AB000EF309050AA872326F4FE9307C4FE3E869B
:101AC0008D450325C4FDAD35AA873E85B25022540D
:101AD00045618280011122CE00102326A4FE032737
:101AE000C4FEB7170080938747A26314F7008147AD
:101AF00011A0FD573E85724405618280011122CEFE
:101B000000102326A4FE0327C4FEB7170080938786
:101B100047A26317F700B7470F009387072411A068
:101B200081473E85724405618280011122CE0010FA
:101B30002326A4FE0327C4FEB7170080938747A27D
:101B40006317F700B70700809387870211A08147CA
:101B50003E85724405618280011122CE0010232649
:101B6000A4FE0327C4FEB7170080938747A263141F
:101B7000F700814711A081473E857244056182804C
:101B8000011122CE00102326A4FE8327C4FE634C3D
:101B9000F000B71700800327C4FE0A07938787A1C8
:101BA000BA979C4311A081473E85724405618280AB
:101BB000011122CE0010F32740F12326F4FE8327E3
:101BC000C4FE3E85724405618280011122CE001060
:101BD000A147F3A707302326F4FE010072440561F4
:101BE0008280011122CE0010A147F3B707302326CF
:101BF000F4FE0100724405618280011122CE0010C2
:101C0000A147F3A747302326F4FE01007244056183
:101C10008280011122CE0010A147F3B7473023265E
:101C2000F4FE0100724405618280011122CE001091
:101C300093070008F3A747302326F4FE01007244FF
:101C400005618280011122CE001093070008F3B7CE
:101C500047302326F4FE01007244056182800111A1
:101C600022CE0010856793870780F3A7473023268D
:101C7000F4FE0100724405618280011122CE001041
:101C8000856793870780F3B747302326F4FE01006A
:101C9000724405618280797122D60018232EA4FC3B
:101CA0008327C4FD0547B317F7002326F4FE8327D7
:101CB000C4FEF3A747302324F4FE010032544561EB
:101CC0008280797122D60018232EA4FC8327C4FDBC
:101CD0000547B317F7002326F4FE8327C4FEF3B7A6
:101CE00047302324F4FE0100325445618280011103
:101CF00006CE22CC00102326A4FE2324B4FE130516
:101D00004006EF30102D011106CE22CC0010232604
:101D1000A4FE2324B4FE1305800CEF30902B5D71DC
:101D200086C696C49AC29EC022DE2ADC2EDA32D83B
:101D300036D63AD43ED242D046CE72CC76CA7AC893
:101D40007EC680081305C012EF30B0281D7186CE04
:101D500096CC9ACA9EC8A2C6AAC4AEC2B2C036DE8B
:101D60003ADC3EDA42D846D672D476D27AD07ECEEB
:101D700080103D3D2A87B71700800A07938787A107
:101D8000BA979C432326F4FA8327C4FA85C7032510
:101D9000C4FA613B2324A4FA832784FA83A7070E9D
:101DA0002322F4FA832784FA83A7870D832544FA34
:101DB0000D4582970100F640E6425643C64336443D
:101DC000264596450646F2566257D2574258B258B3
:101DD000225E925E025FF24F2561730020307971BE
:101DE00006D622D40018232EA4FC232CB4FCC9331D
:101DF0002A87B71700800A07938787A1BA979C4361
:101E00002326F4FEF32720342324F4FE8327C4FE84
:101E100095C70325C4FE113B2322A4FE832784FE1D
:101E200093F7F73F032744FE9387870E8A07BA97F5
:101E30009C438325C4FD0325C4FE82970100B25054
:101E40002254456182801D7186CE96CC9ACA9EC866
:101E5000A2C6AAC4AEC2B2C036DE3ADC3EDA42D86E
:101E600046D672D476D27AD07ECE801091332A872D
:101E7000B71700800A07938787A1BA979C43232648
:101E8000F4FA8327C4FA85C70325C4FA79392324D1
:101E9000A4FA832784FA83A707142322F4FA83275A
:101EA00084FA83A78713832544FA1D45829701008E
:101EB000F640E6425643C643364426459645064616
:101EC000F2566257D2574258B258225E925E025F73
:101ED000F24F256173002030011122CE001023261D
:101EE000A4FE2324B4FE010072440561828079714E
:101EF00006D622D40018232EA4FC232CB4FC4D3982
:101F0000AA873E85B5392326A4FE0325C4FEEF101B
:101F100020282320A4FE2322B4FE032704FE8327C7
:101F200044FE294581453306A70032883338E8004E
:101F3000B386B700B307D800BE863287B687BA85A6
:101F40003E860325C4FEEF10002B0100B250225440
:101F500045618280000000000000000000000000D9
:101F60000000000000000000000000000000000071
:101F70000000000000000000000000000000000061
:101F8000197186DE96DC9ADA9ED8A2D6AAD4AED291
:101F9000B2D0B6CEBACCBECAC2C8C6C6F2C4F6C2A9
:101FA000FAC07EDE000129312A87B71700800A07B0
:101FB000938787A1BA979C432326F4FAF32720340A
:101FC0002324F4FAF32710342322F4FAF3273034CD
:101FD0002320F4FAF3275030232EF4F88327C4FA91
:101FE000F5CB0325C4FA9136232CA4F8832784FA71
:101FF00093F7F73F232AF4F8832784FA63DE070A6E
:10200000032744F9930700086312F702832784F932
:1020100083A787392326F4F8832784F983A7073910
:102020008325C4F8032544F982976DA0032744F95A
:10203000AD4763D7E7008327C4F993F7F7039DEF14
:10204000832684F9032744F9BA878607BA978E074F
:10205000B69783A787092326F4F8832684F90327F4
:1020600044F9BA878607BA978E07B69783A70709F8
:102070008325C4F8032544F98297A9A88327C4F9C6
:1020800013F7F70389476317F704F3277030232802
:10209000F4F8832784F983A7C70D2326F4F8832750
:1020A00004F99C432324F4F8832784F88325C4F897
:1020B000032544F9829739A8032784F9832744F933
:1020C0009387870E8A07BA979C43832544F9032593
:1020D000C4FA8297F650E6525653C65336542655E4
:1020E00096550656F6466647D6474648B648264EA3
:1020F000964E064FF25F0961730020300000000029
:1021000000000000000000000000000000000000CF
:1021100000000000000000000000000000000000BF
:1021200000000000000000000000000000000000AF
:10213000000000000000000000000000000000009F
:10214000000000000000000000000000000000008F
:10215000000000000000000000000000000000007F
:10216000000000000000000000000000000000006F
:102170000000000000001D7186CE96CC9ACA9EC851
:10218000A2C6AAC4AEC2B2C036DE3ADC3EDA42D83B
:1021900046D672D476D27AD07ECE8010113C2A8771
:1021A000B71700800A07938787A1BA979C43232615
:1021B000F4FA8327C4FA8DC70325C4FAEFF0FF961B
:1021C0002324A4FA832784FA83A787212322F4FAFD
:1021D000832784FA83A70721832544FA4145829700
:1021E0000100F640E6425643C6433644264596452E
:1021F0000646F2566257D2574258B258225E925E55
:10220000025FF24F2561730020301D7186CE96CC9F
:102210009ACA9EC8A2C6AAC4AEC2B2C036DE3ADC12
:102220003EDA42D846D672D476D27AD07ECE8010AC
:10223000EFF01F982A87B71700800A07938787A1B6
:10224000BA979C432326F4FA8327C4FA8DC7032543
:10225000C4FAEFF09F8D2324A4FA832784FA83A77E
:1022600007232322F4FA832784FA83A7872283256E
:1022700044FA454582970100F640E6425643C6437C
:102280003644264596450646F2566257D25742587E
:10229000B258225E925E025FF24F256173002030D9
:1022A0001D7186CE96CC9ACA9EC8A2C6AAC4AEC2DA
:1022B000B2C036DE3ADC3EDA42D846D672D476D2A6
:1022C0007AD07ECE8010EFF0BF8E2A87B7170080BD
:1022D0000A07938787A1BA979C432326F4FA83279A
:1022E000C4FA8DC70325C4FAEFF03F842324A4FA6F
:1022F000832784FA83A787242322F4FA832784FA86
:1023000083A70724832544FA494582970100F640B4
:10231000E6425643C6433644264596450646F2569F
:102320006257D2574258B258225E925E025FF24F15
:102330002561730020301D7186CE96CC9ACA9EC846
:10234000A2C6AAC4AEC2B2C036DE3ADC3EDA42D879
:1023500046D672D476D27AD07ECE8010EFF05F85EA
:102360002A87B71700800A07938787A1BA979C43EB
:102370002326F4FA8327C4FA8DC70325C4FAEFF0A5
:10238000CFFA2324A4FA832784FA83A707262322DB
:10239000F4FA832784FA83A78725832544FA4D45D9
:1023A00082970100F640E6425643C643364426452E
:1023B00096450646F2566257D2574258B258225EA8
:1023C000925E025FF24F2561730020301D7186CE50
:1023D00096CC9ACA9EC8A2C6AAC4AEC2B2C036DE05
:1023E0003ADC3EDA42D846D672D476D27AD07ECE65
:1023F0008010EFF0EFFB2A87B71700800A0793875A
:1024000087A1BA979C432326F4FA8327C4FA8DC781
:102410000325C4FAEFF06FF12324A4FA832784FA8A
:1024200083A787272322F4FA832784FA83A7072721
:10243000832544FA514582970100F640E64256430F
:10244000C6433644264596450646F2566257D2574D
:102450004258B258225E925E025FF24F25617300CD
:1024600020301D7186CE96CC9ACA9EC8A2C6AAC438
:10247000AEC2B2C036DE3ADC3EDA42D846D672D4BC
:1024800076D27AD07ECE8010EFF08FF22A87B717FF
:1024900000800A07938787A1BA979C432326F4FA02
:1024A0008327C4FA8DC70325C4FAEFF00FE823246D
:1024B000A4FA832784FA83A707292322F4FA83271F
:1024C00084FA83A78728832544FA5545829701001B
:1024D000F640E6425643C6433644264596450646F0
:1024E000F2566257D2574258B258225E925E025F4D
:1024F000F24F2561730020301D7186CE96CC9ACAAA
:102500009EC8A2C6AAC4AEC2B2C036DE3ADC3EDA6B
:1025100042D846D672D476D27AD07ECE8010EFF0F2
:102520002FE92A87B71700800A07938787A1BA97F0
:102530009C432326F4FA8327C4FA8DC70325C4FAE3
:10254000EFF0AFDE2324A4FA832784FA83A7872A37
:102550002322F4FA832784FA83A7072A832544FADF
:10256000594582970100F640E6425643C643364439
:10257000264596450646F2566257D2574258B258FB
:10258000225E925E025FF24F2561730020301D7162
:1025900086CE96CC9ACA9EC8A2C6AAC4AEC2B2C003
:1025A00036DE3ADC3EDA42D846D672D476D27AD0DB
:1025B0007ECE8010EFF0CFDF2A87B71700800A07A2
:1025C000938787A1BA979C432326F4FA8327C4FAFA
:1025D0008DC70325C4FAEFF04FD52324A4FA83272F
:1025E00084FA83A7072C2322F4FA832784FA83A78B
:1025F000872B832544FA5D4582970100F640E64229
:102600005643C6433644264596450646F25662571B
:10261000D2574258B258225E925E025FF24F256155
:10262000730020301D7186CE96CC9ACA9EC8A2C671
:10263000AAC4AEC2B2C036DE3ADC3EDA42D846D6D2
:1026400072D476D27AD07ECE8010EFF06FD62A8701
:10265000B71700800A07938787A1BA979C43232660
:10266000F4FA8327C4FA8DC70325C4FAEFF0EFCB41
:102670002324A4FA832784FA83A7872D2322F4FA3C
:10268000832784FA83A7072D832544FA614582971F
:102690000100F640E6425643C64336442645964579
:1026A0000646F2566257D2574258B258225E925EA0
:1026B000025FF24F2561730020301D7186CE96CCEB
:1026C0009ACA9EC8A2C6AAC4AEC2B2C036DE3ADC5E
:1026D0003EDA42D846D672D476D27AD07ECE8010F8
:1026E000EFF00FCD2A87B71700800A07938787A1DD
:1026F000BA979C432326F4FA8327C4FA8DC703258F
:10270000C4FAEFF08FC22324A4FA832784FA83A7A4
:10271000072F2322F4FA832784FA83A7872E8325A1
:1027200044FA654582970100F640E6425643C643A7
:102730003644264596450646F2566257D2574258C9
:10274000B258225E925E025FF24F25617300203024
:102750001D7186CE96CC9ACA9EC8A2C6AAC4AEC225
:10276000B2C036DE3ADC3EDA42D846D672D476D2F1
:102770007AD07ECE8010EFF0AFC32A87B7170080E3
:102780000A07938787A1BA979C432326F4FA8327E5
:10279000C4FA8DC70325C4FAEFF02FB92324A4FA95
:1027A000832784FA83A787302322F4FA832784FAC5
:1027B00083A70730832544FA694582970100F640D4
:1027C000E6425643C6433644264596450646F256EB
:1027D0006257D2574258B258225E925E025FF24F61
:1027E0002561730020301D7186CE96CC9ACA9EC892
:1027F000A2C6AAC4AEC2B2C036DE3ADC3EDA42D8C5
:1028000046D672D476D27AD07ECE8010EFF04FBA10
:102810002A87B71700800A07938787A1BA979C4336
:102820002326F4FA8327C4FA8DC70325C4FAEFF0F0
:10283000CFAF2324A4FA832784FA83A70732232265
:10284000F4FA832784FA83A78731832544FA6D45F8
:1028500082970100F640E6425643C6433644264579
:1028600096450646F2566257D2574258B258225EF3
:10287000925E025FF24F2561730020301D7186CE9B
:1028800096CC9ACA9EC8A2C6AAC4AEC2B2C036DE50
:102890003ADC3EDA42D846D672D476D27AD07ECEB0
:1028A0008010EFF0EFB02A87B71700800A079387F0
:1028B00087A1BA979C432326F4FA8327C4FA8DC7CD
:1028C0000325C4FAEFF06FA62324A4FA832784FA21
:1028D00083A787332322F4FA832784FA83A7073355
:1028E000832544FA714582970100F640E64256433B
:1028F000C6433644264596450646F2566257D25799
:102900004258B258225E925E025FF24F2561730018
:1029100020301D7186CE96CC9ACA9EC8A2C6AAC483
:10292000AEC2B2C036DE3ADC3EDA42D846D672D407
:1029300076D27AD07ECE8010EFF08FA72A87B71795
:1029400000800A07938787A1BA979C432326F4FA4D
:102950008327C4FA8DC70325C4FAEFF00F9D232403
:10296000A4FA832784FA83A707352322F4FA83275E
:1029700084FA83A78734832544FA7545829701003A
:10298000F640E6425643C64336442645964506463B
:10299000F2566257D2574258B258225E925E025F98
:1029A000F24F2561730020301D7186CE96CC9ACAF5
:1029B0009EC8A2C6AAC4AEC2B2C036DE3ADC3EDAB7
:1029C00042D846D672D476D27AD07ECE8010EFF03E
:1029D0002F9E2A87B71700800A07938787A1BA9787
:1029E0009C432326F4FA8327C4FA8DC70325C4FA2F
:1029F000EFF0AF932324A4FA832784FA83A78736C2
:102A00002322F4FA832784FA83A70736832544FA1E
:102A1000794582970100F640E6425643C643364464
:102A2000264596450646F2566257D2574258B25846
:102A3000225E925E025FF24F2561730020301D71AD
:102A400086CE96CC9ACA9EC8A2C6AAC4AEC2B2C04E
:102A500036DE3ADC3EDA42D846D672D476D27AD026
:102A60007ECE8010EFF0CF942A87B71700800A0738
:102A7000938787A1BA979C432326F4FA8327C4FA45
:102A80008DC70325C4FAEFF04F8A2324A4FA8327C5
:102A900084FA83A707382322F4FA832784FA83A7CA
:102AA0008737832544FA7D4582970100F640E64248
:102AB0005643C6433644264596450646F256625767
:102AC000D2574258B258225E925E025FF24F2561A1
:102AD00073002030011122CE0010F327503023263E
:102AE000F4FE8327C4FE93F7F7032326F4FE03279F
:102AF000C4FE8D476303F7020327C4FE8D4763E2DC
:102B0000E7020327C4FE8547630BF7000327C4FED3
:102B100089476318F7008D4731A0914721A0854769
:102B200011A081473E85724405618280797122D669
:102B30000018232EA4FC232CB4FCF32750302326AA
:102B4000F4FE8327C4FE93F707FC2326F4FE8327B5
:102B500084FD2324F4FE0327C4FD91476305F70495
:102B60000327C4FD914763E8E7060327C4FD8D47AB
:102B700063E3E7060327C4FD8947637BF7008327E8
:102B8000C4FDA1C70327C4FD85476309F702A1A0BF
:102B9000832784FE739077308327C4FE93E7270052
:102BA000739057300DA8832784FE73907730832766
:102BB000C4FE93E737007390573031A8832784FE13
:102BC00093E717007390573039A0832784FEF19B59
:102BD0007390573001000100325445618280011129
:102BE00022CE00102326A4FE0327C4FEFD4763C5A2
:102BF000E7020327C4FE8D476348F7028327C4FE1C
:102C0000457713078788B357F700858BB337F000F4
:102C100093F7F70F81EB09A80327C4FE9307000879
:102C20006314F700854719A0010081473E8572446F
:102C300005618280797106D622D40018232EA4FC67
:102C4000232CB4FC232AC4FC232604FE8327C4FDC2
:102C500099E3FD5749A8032784FDFD4763E0E70892
:102C6000832784FD13972700B70710209387073E1B
:102C7000BA979C438287832744FD81C7EFE0FFF426
:102C80008DA0EFE01FF6B1A8832744FD81C7EFE0D8
:102C9000DFF681A8EFE0FFF7A9A0832744FD81C7F5
:102CA000EFE0BFF83DA8EFE0FFF925A8832744FD3A
:102CB00081C7EFE0DFFA35A0EFE03FFC1DA08327DE
:102CC00044FD99C7832784FD3E85EFE0DFFC11A812
:102CD000832784FD3E85EFE0DFFE21A0FD572326FC
:102CE000F4FE8327C4FE3E85B250225445618280A3
:102CF000797122D60018232EA4FC232CB4FC232A9D
:102D0000C4FC8327C4FD2326F4FE032784FDAD47BE
:102D100063C2E702832744FD91CF0327C4FE8327C4
:102D200084FD9387870E8A07BA97032744FD98C3CB
:102D3000814711A0FD573E853254456182807971EB
:102D400006D622D40018232EA4FC8327C4FD2322F8
:102D5000F4FE832744FEDC43DDEF232604FEB9A006
:102D6000832644FE0327C4FEBA878607BA978E07D8
:102D7000B69723A80708832644FE0327C4FEBA8714
:102D80008607BA978E07B69723AA0708832644FEBC
:102D90000327C4FEBA878607BA978E07B69723AC77
:102DA00007088327C4FE85072326F4FE0327C4FEF5
:102DB000FD47E3D7E7FA232404FE1DA0032744FEC2
:102DC000832784FE9387870E8A07BA9737271020B8
:102DD0001307E7CE98C3832784FE85072324F4FED8
:102DE000032784FEAD47E3DBE7FCF32750302320C5
:102DF000F4FEB707102093874713032704FE6318D8
:102E0000F700B7271020938507F80145053383277E
:102E100044FE0547D8C30100B25022544561828068
:102E2000797106D622D40018232EA4FC232CB4FCDE
:102E3000232AC4FC2328D4FC232604FE8327C4FDB4
:102E40002324F4FE032584FD593BAA8799E3D55733
:102E50005DA2032784FD930700086317F7009D39DF
:102E6000AA8799C3CD5741AA832744FDB9CF032729
:102E700084FD93070008631FF700832784FE032760
:102E800044FD23A8E738832784FE032704FD23ACF1
:102E9000E73885A2832684FE032784FDBA87860748
:102EA000BA978E07B697032744FD23A8E708832621
:102EB00084FE032784FDBA878607BA978E07B697E4
:102EC000032704FD23ACE7082DA2032784FD930705
:102ED00000086301F70C032784FD9307000863C70C
:102EE000E710032784FDFD4763C2E710032784FD35
:102EF000C1476350F70C032784FDAD47630BF70A06
:102F0000032784FDAD4763C3E70E032784FD8D4788
:102F10006308F700032784FD9D476300F704F9A0C9
:102F2000832684FE032784FDBA878607BA978E0717
:102F3000B697372710201307E7DD23A8E708832675
:102F400084FE032784FDBA878607BA978E07B69753
:102F5000032704FD23AAE70869A8832684FE032724
:102F600084FDBA878607BA978E07B6973727102051
:102F70001307E7EE23A8E708832684FE032784FDD2
:102F8000BA878607BA978E07B697032704FD23AA48
:102F9000E70885A0832784FE37271020130787EDD5
:102FA00023A8E738832784FE032704FD23ACE738F2
:102FB00089A0832684FE032784FDBA878607BA97F3
:102FC0008E07B69737271020130767D023A8E70886
:102FD000832684FE032784FDBA878607BA978E0767
:102FE000B697032704FD23AAE70821A0D15723267B
:102FF000F4FE8327C4FE3E85B25022544561828090
:10300000011106CE22CC00102326A4FE2324B4FEF8
:10301000832784FE0546BE850325C4FE2139AA8781
:103020003E85F240624405618280011106CE22CCC9
:1030300000102326A4FE2324B4FE832784FE014629
:10304000BE850325C4FEFD36AA873E85F240624454
:1030500005618280011106CE22CC00102326A4FE39
:10306000953CAA873E85F240624405618280011149
:1030700006CE22CC00102326A4FE2324B4FE8327F0
:1030800084FE91EBB7271020938507F8032584FE73
:10309000713C814705A0032784FE8547631BF70029
:1030A000B767102093850788032584FE4134814744
:1030B00011A0FD573E85F2406244056182800111F6
:1030C00022CE00102326A4FE2324B4FE2322C4FE15
:1030D00081473E85724405618280397122DE80001D
:1030E0002326A4FC014581452324A4FE2326B4FE07
:1030F000F32500B82322B4FEF32500B02320B4FE4C
:10310000F32500B8232EB4FC032544FE8325C4FD1B
:10311000E310B5FE832544FE2E88814893170800EE
:103120000147832504FE2E868146B365C70023240C
:10313000B4FED58F2326F4FE032784FE8327C4FE26
:103140003A85BE85725421618280797106D622D477
:103150004AD24ED00018232EA4FC8327C4FD81E759
:103160000149814921A80325C4FDEFE03F992326A9
:10317000A4FE8327C4FE3E89FD87BE894A87CE8789
:103180003A85BE85B25022541259825945618280D7
:10319000797106D622D40018232EA4FC8147014859
:1031A0002320F4FE232204FF0325C4FDEFE0FF9754
:1031B0002326A4FE8327C4FE8DC78327C4FE83A7CE
:1031C000C7132324F4FE832784FE81CF832784FE44
:1031D0009C43FC47130704FE3A868545032584FE7D
:1031E0008297032704FE832744FE3A85BE85B250AA
:1031F000225445618280797106D622D426D20018E5
:10320000232EA4FC2328B4FC232AC4FCFD57232628
:10321000F4FE0325C4FDEFE05F912324A4FE832781
:1032200084FE8DCF832784FE83A7C7132322F4FE59
:10323000832744FE85C7832744FE9C43A44B032574
:10324000C4FDEFE03F89AA87032604FD832644FDE1
:10325000BE85032544FE82942326A4FE8327C4FE54
:103260003E85B2502254925445618280011122CE93
:1032700000102326A4FEB71700809387C7A13E85C0
:10328000724405618280011122CE00102326A4FE23
:103290009D473E85724405618280011122CE001057
:1032A0002326A4FEB71700809387C7A13E857244EA
:1032B00005618280011122CE00102326A4FE8D47D5
:1032C0003E85724405618280797106D622D4001849
:1032D000232EA4FC232CB4FCFD572326F4FE032547
:1032E000C4FDEFE09F842324A4FE832784FE9DC7B2
:1032F000832784FE83A7C70D2322F4FE832744FE81
:1033000091CF832744FE9C43FC47130784FD3A86F4
:103310008D45032544FE82972326A4FE8327C4FE01
:103320003E85B250225445618280797106D622D4FE
:103330000018232EA4FC232CB4FCFD572326F4FEF6
:103340000325C4FDEFE06FFE2324A4FE832784FE43
:103350009DC7832784FE83A7C70D2322F4FE8327FE
:1033600044FE91CF832744FE9C43FC47130784FD12
:103370003A868945032544FE82972326A4FE8327A7
:10338000C4FE3E85B250225445618280797106D6D2
:1033900022D40018232EA4FC232CB4FC232604FEE4
:1033A0000325C4FDEFE06FF82324A4FE832784FEE9
:1033B0009DC7832784FE83A7C70D2322F4FE83279E
:1033C00044FE91CF832744FE9C43FC47130784FDB2
:1033D0003A869145032544FE82972326A4FE83273F
:1033E000C4FE3E85B250225445618280011106CE52
:1033F00022CC00102326A4FE0325C4FEEFE0EFF24A
:10340000AA873E85F240624405618280797106D6C2
:1034100022D40018232EA4FC232CB4FC232AC4FCA1
:103420000325C4FDEFE06FF02326A4FE8327C4FE2E
:1034300099CB032644FD832584FD0325C4FEEFF0CC
:103440003F8BAA8711A0FD573E85B250225445619B
:103450008280011122CE00102326A4FE2324B4FE74
:10346000832784FE83D7070013F737008D47631443
:10347000F700914711A089473E857244056182801B
:10348000797122D60018232EA4FCF32710342326AA
:10349000F4FE8327C4FE3E853254456182800111CB
:1034A00022CE00102326A4FE2324B4FE832784FE0C
:1034B0007390173481473E85724405618280011103
:1034C00006CE22CC00102326A4FE0325C4FEEFE086
:1034D000AFE8AA873E85F24062440561828001110F
:1034E00022CE00102326A4FE0327C4FEB7070080C7
:1034F0009387873F6315F700B707000C11A081473A
:103500003E85724405618280011122CE001023267F
:10351000A4FE0327C4FEB70700809387873F631587
:10352000F7009307500311A081473E85724405615F
:103530008280011122CE00102326A4FE0327C4FEA0
:10354000B70700809387873F6314F7009D4711A05A
:1035500081473E85724405618280011122CE0010B0
:103560002326A4FE2324B4FE832784FE91E7B70715
:1035700000809387870211A081473E8572440561D0
:103580008280011122CE00102326A4FE2324B4FE43
:10359000832784FE99E3AD4711A081473E8572449D
:1035A00005618280011122CE00102326A4FE83270C
:1035B000C4FE99E3814711A0FD573E857244056121
:1035C0008280797106D622D40018232EA4FC232CE5
:1035D000B4FC0325C4FD21372326A4FE832784FDE4
:1035E0001397C7008327C4FE3E97B70720009107B3
:1035F000BA979C433E85B2502254456182807971CE
:1036000006D622D40018232EA4FC232CB4FC232A93
:10361000C4FC0325C4FDE1352326A4FE832784FDD5
:103620001397C7008327C4FE3E97B7072000910772
:10363000BA973E87832744FD1CC30100B250225431
:1036400045618280797106D622D40018232EA4FC0D
:10365000232CB4FC232AC4FC0325C4FD49352326AE
:10366000A4FE832784FD1397C7008327C4FE3E97DB
:10367000B7072000BA973E87832744FD1CC38147C4
:103680003E85B250225445618280797106D622D49B
:103690000018232EA4FC232CB4FC0325C4FD813583
:1036A0002326A4FE832784FD1397C7008327C4FE27
:1036B0003E97B7072000BA979C433E85B2502254EC
:1036C00045618280797106D622D40018232EA4FC8D
:1036D000232CB4FC232AC4FC0325C4FD093523266E
:1036E000A4FE0325C4FDB135AA872324F4FE832755
:1036F00084FE85C7032744FD832784FE637FF7008C
:10370000832784FD139727008327C4FEBA973E873B
:10371000832744FD1CC3814711A0FD573E85B2504D
:10372000225445618280797106D622D40018232E56
:10373000A4FC232CB4FC0325C4FD55332326A4FE8E
:10374000832784FD139727008327C4FEBA979C43E1
:103750003E85B250225445618280797106D622D4CA
:103760000018232EA4FC232CB4FC232AC4FC2328F9
:10377000D4FC0325C4FDA5332326A4FE832784FDA2
:10378000139777008327C4FEBA97032744FD158754
:103790000A073E978967BA979C432324F4FE832740
:1037A00004FD81CF832744FDFD8B0547B317F70048
:1037B0003E87832784FED98F29A8832744FDFD8B6C
:1037C0000547B317F70093C7F7FF3E87832784FEAB
:1037D000F98F032784FD931677000327C4FE3697DD
:1037E000832644FD95868A06BA96096736971CC3D8
:1037F00081473E85B250225445618280011106CE38
:1038000022CC00102326A4FE2324B4FE1305C012EC
:10381000EF10307C797106D622D40018232EA4FC38
:10382000232CB4FC832784FD2326F4FEEFE04FB85D
:10383000AA873E85853B2324A4FE832584FE032599
:10384000C4FE41332322A4FE0325C4FE7539AA8792
:103850002320F4FE032744FE832704FE6370F7044D
:103860000327C4FE832744FE8A07BA979C479DC757
:103870000327C4FE832744FE8A07BA97944703258B
:1038800044FE0326C4FE032744FEBA878607BA9780
:103890008E07B29783A7070FBE858296032644FE44
:1038A000832584FE0325C4FE993B0100B2502254B7
:1038B00045618280397106DE22DC80002326A4FC6B
:1038C0008327C4FC2322F4FE832744FEDC43639653
:1038D0000712232604FE11AA0325C4FC3531232038
:1038E000A4FE8325C4FE0325C4FC8539232EA4FC35
:1038F0008325C4FE0325C4FC6931232CA4FC832743
:10390000C4FD9C439C430325C4FD8297232404FEED
:1039100085A88146032684FE8325C4FE032544FE34
:103920002D3D032784FE832704FE6356F7040146DA
:10393000832584FE0325C4FC7133032744FE8327BB
:1039400084FE8A07BA9723A40700832644FE032730
:1039500084FEBA878607BA978E07B69723A6070E06
:10396000832644FE032784FEBA878607BA978E070C
:10397000B69723A8070E832784FE85072324F4FE29
:10398000032784FE9307F03FE3D5E7F8014683253C
:10399000C4FE0325C4FC7D318327C4FD9C43DC4F5A
:1039A000832644FE0146832584FD0325C4FD8297BA
:1039B0008327C4FD9C43DC4F832644FE37471020F9
:1039C00013064781832584FD0325C4FD8297832741
:1039D000C4FD9C43DC53832584FD0325C4FD8297ED
:1039E0008327C4FE85072326F4FE8327C4FEE35500
:1039F000F0EE832744FE0547D8C30100F25062541D
:103A000021618280797106D622D40018232EA4FC6D
:103A1000232CB4FC232AC4FC2328D4FC8327C4FD14
:103A20002326F4FE0325C4FDEFF01FAE2A8783276B
:103A300084FD63C4E700FD5741A0832744FD95CF73
:103A40000946832584FD0325C4FDAD390327C4FE43
:103A5000832784FD8A07BA97032744FD98C78326E6
:103A6000C4FE032784FDBA878607BA978E07B697E8
:103A7000032704FD23A8E70E3DA80546832584FD02
:103A80000325C4FD81310327C4FE832784FD8A07F3
:103A9000BA97373710201307C77F98C78326C4FE0D
:103AA000032784FDBA878607BA978E07B697032740
:103AB00004FD23A6E70E81473E85B250225445619E
:103AC0008280797106D622D40018232EA4FC232CE0
:103AD000B4FC8327C4FD2326F4FE0325C4FDEFF0C8
:103AE000BFA22A87832784FD63C4E700FD5721A86E
:103AF000EFE00F8CAA878546032684FDBE8503254B
:103B0000C4FEA13981473E85B2502254456182806E
:103B1000797106D622D40018232EA4FC232CB4FCE1
:103B20008327C4FD2326F4FE0325C4FDEFF0DF9DAB
:103B30002A87832784FD63C4E700FD5721A8EFE0AF
:103B40002F87AA878146032684FDBE850325C4FEF0
:103B5000293181473E85B25022544561828001114E
:103B600006CE22CC00102326A4FE2324B4FEEFE0D0
:103B70002F84AA87032684FEBE850325C4FEEFF0AA
:103B80007FACAA873E85F2406244056182800111C4
:103B900006CE22CC00102326A4FEEFE06F81AA8778
:103BA000BE850325C4FEEFF05FAEAA873E85F240D6
:103BB000624405618280797106D622D40018232ED2
:103BC000A4FC232CB4FC232AC4FC232204FE832758
:103BD000C4FD2324F4FE0325C4FDEFF0FF922A87E1
:103BE000832744FD63C8E700FD572322F4FE8327A3
:103BF00044FE91A8232604FE91A08327C4FE8DC70E
:103C00008546032644FD8325C4FE032584FEB13684
:103C1000AA8713F717008327C4FE3317F7008327FB
:103C200044FED98F2322F4FE8327C4FE8507232672
:103C3000F4FE832784FD8583232CF4FC832784FDF5
:103C4000CDFF832744FE3E85B250225445618280D9
:103C5000797106D622D40018232EA4FC232CB4FCA0
:103C6000232AC4FC232204FE8327C4FD2324F4FE5C
:103C70000325C4FDEFF05F892A87832744FD63C8CD
:103C8000E700FD572322F4FE832744FE99A823264C
:103C900004FE99A08327C4FE95C78146032644FDF0
:103CA0008325C4FE032584FEEFF03FABAA8713F7FC
:103CB00017008327C4FE3317F700832744FED98FEC
:103CC0002322F4FE8327C4FE85072326F4FE8327E0
:103CD00084FD8583232CF4FC832784FDC5FF832783
:103CE00044FE3E85B250225445618280797106D6E9
:103CF00022D40018232EA4FC232CB4FC232AC4FCB9
:103D0000232404FE232604FE91A08327C4FE8DC72E
:103D1000032644FD8325C4FE0325C4FDEFF09F92D6
:103D2000AA8713F717008327C4FE3317F7008327EA
:103D300084FED98F2324F4FE8327C4FE850723261F
:103D4000F4FE832784FD8583232CF4FC832784FDE4
:103D5000CDFF832784FE3E85B25022544561828088
:103D6000011106CE22CC00102326A4FE2324B4FE8B
:103D7000832584FE0325C4FEEFF03F9181473E85F5
:103D8000F240624405618280011122CE0010232698
:103D9000A4FEB70700809387C7003E857244056183
:103DA0008280011122CE00102326A4FE93878181F8
:103DB0003E85724405618280011122CE00102326C7
:103DC000A4FE81473E85724405618280411122C66E
:103DD0000008B7171020938787EC3E8532444101D5
:103DE0008280397106DE22DC80002326A4FC0325B4
:103DF000C4FC593F2326A4FE0325C4FC753F23249D
:103E0000A4FE0325C4FC713F2322A4FEC137232056
:103E1000A4FE832704FE9C43832584FE032544FEE1
:103E20008297232EA4FC0327C4FDB7070040F98F17
:103E300099E3FD5725A08327C4FD63C40700FD5700
:103E400031A80325C4FEEF101005AA873E878327FB
:103E5000C4FD93F7F7038507B357F7023E85F25089
:103E6000625421618280011106CE22CC00102326EB
:103E7000A4FE2324B4FE0325C4FEA537AA873E85ED
:103E8000F240624405618280011122CE0010232697
:103E9000A4FEB7070080938707003E857244056142
:103EA0008280011122CE00102326A4FE93878181F7
:103EB0003E85724405618280011122CE00102326C6
:103EC000A4FE91473E85724405618280411122C65D
:103ED0000008B7171020938787EC3E8532444101D4
:103EE0008280397106DE22DC80002326A4FC0325B3
:103EF000C4FC593F2326A4FE0325C4FC753F23249C
:103F0000A4FE0325C4FC713F2322A4FEC137232055
:103F1000A4FE832704FE9C43832584FE032544FEE0
:103F20008297232EA4FC0327C4FDB7070040F98F16
:103F300099E3FD5721A88327C4FD63C40700FD57FB
:103F400031A00325C4FEEF100075AA873E85F2500C
:103F5000625421618280011106CE22CC00102326FA
:103F6000A4FE2324B4FE0325C4FEA53FAA873E85F4
:103F7000F240624405618280011122CE00102326A6
:103F8000A4FEB71700809387079F3E8572440561A2
:103F90008280011122CE00102326A4FEB7170080D4
:103FA0009387C79F3E85724405618280011122CEAE
:103FB00000102326A4FE938781813E85724405610B
:103FC0008280011122CE00102326A4FEB1473E8537
:103FD000724405618280411122C600089387818165
:103FE0003E85324441018280411122C60008A1472A
:103FF0003E85324441018280411122C60008B72724
:10400000F400938707403E8532444101828041118C
:1040100022C60008B78700103E85324441018280E5
:10402000411122C60008B7171020938787EC3E8500
:10403000324441018280011122CE00102326A4FEC9
:104040002324B4FE832784FE9C470327C4FE6369B0
:10405000F700832784FEDC470327C4FE63F4E700F0
:10406000FD5729A8832784FE98438327C4FE33077E
:10407000F702832784FEDC43B357F7023E85724480
:1040800005618280397106DE22DC80002326A4FCD3
:104090008327C4FC3E85F53D2326A4FEB13F23249F
:1040A000A4FE99372322A4FE9D372320A4FE0327D4
:1040B00004FE832744FEBA97232EF4FC8327C4FC16
:1040C000DC433E85EF10C0538327C4FD9843C1678E
:1040D000F98F91CB8327C4FD9843C177FD177D8F5E
:1040E0008327C4FD98C38327C4FE91CB8327C4FDD7
:1040F0009843B70702005D8F8327C4FD98C38327C9
:10410000C4FC9C43DC430327C4FC832584FE3A851E
:1041100082978327C4FC9C473E85EF10604E0100C8
:10412000F2506254216182801D7186CEA2CC801033
:104130002326A4FA0325C4FAA93D2326A4FE0325B9
:10414000C4FA1D3D2324A4FE0325C4FA713D232295
:10415000A4FE0325C4FA41352320A4FE0325C4FA96
:104160008D35232EA4FC0325C4FA8935232CA4FC09
:10417000453D232AA4FC832744FD9C43832544FE1C
:10418000032504FE82972328A4FC832744FD9C4337
:104190008325C4FD032584FD82972326A4FC0327E1
:1041A00004FDC1677D8FC1676378F700032584FE36
:1041B000EF10604EAA87E1A8032704FDB7070200AD
:1041C0007D8FB70702006365F7008327C4FE19A03F
:1041D000832784FE3E85EF10004C2324A4FC032794
:1041E00004FDB70704007D8FB70704006365F7007F
:1041F000832784FC69A8832704FD9D8B85072322E0
:10420000F4FC832704FD93F7073F91838507860716
:104210002320F4FC032704FD8567938707C07D8F67
:104220009307F03F63E4E700FD5795A0032704FDE3
:104230008567938707C0F98FA9830547B317F700F0
:10424000232EF4FA032784FC832744FC3347F70228
:10425000832704FC3307F7028327C4FBB347F70225
:10426000232CF4FA8327C4FC13F707109307F00FED
:1042700063F5E700832784FB19A8032784FB8327C2
:10428000C4FC93F7F70385078607B357F7023E850B
:10429000F640664425618280397106DE22DC8000AA
:1042A0002326A4FC2324B4FCFD572326F4FEB707E1
:1042B0000080FD172324F4FE930730042322F4FE2C
:1042C000ADA08326C4FC832744FE13975700B7078D
:1042D00010209387C756BA97BE853685A93B232001
:1042E000A4FE032704FEFD57630CF702032704FE18
:1042F000832784FC1D8F9357F7413D8FB307F74009
:10430000232EF4FC0327C4FD832784FE635AF700A1
:10431000832744FE2326F4FE8327C4FD2324F4FED2
:10432000832744FEFD172322F4FE832744FEE3DAAD
:1043300007F88327C4FE3E85F250625421618280D3
:10434000797106D622D40018232EA4FC232CB4FCA9
:10435000232AC4FC8327C4FD9C4313F787FF8327CC
:10436000C4FD98C38327C4FD9843832744FD9C4B19
:104370009D8B5D8F8327C4FD98C38327C4FD9C4319
:1043800013F7F7C08327C4FD98C38327C4FD984360
:10439000832744FDDC4B920793F7073F5D8F83270C
:1043A000C4FD98C38327C4FD9843FD779387F73FE7
:1043B0007D8F8327C4FD98C38327C4FD984383273B
:1043C00044FD9C4F9396A7008567938707C0F58FA0
:1043D0005D8F8327C4FD98C3832744FDDC4F63DBD7
:1043E0000702832784FD9C4313E70710832784FD7E
:1043F00098C3832784FD9C4313F707FC832784FD20
:1044000098C3832784FD9C4313E71700832784FD0B
:1044100098C32DA8832784FD9C4313F7F7EF8327C8
:1044200084FD98C3832784FD9C4313F707FC8327EF
:1044300084FD98C3832784FD9843832744FDDC4F84
:1044400093F7F7035D8F832784FD98C38327C4FD0B
:104450009843B707FCFFFD177D8F8327C4FD98C3E2
:10446000930704FE3E868545B71700801385C7A1D4
:10447000EFD00FCC032604FE832644FE1145814570
:104480003307A6003A883338C800B387B600B306AE
:10449000F800B6872324E4FE2326F4FE19A8930728
:1044A00004FE3E868545B71700801385C7A1EFD06F
:1044B0002FC8032704FE832744FE8326C4FE3E86BE
:1044C00063ECC6008326C4FE3E86E39AC6FC8326C0
:1044D00084FEBA87E3F5F6FC01008327C4FD9C4304
:1044E000E3DD07FE01000100B250225445618280E5
:1044F0005D7186C6A2C48008232EA4FA232CB4FAC8
:104500000325C4FBEFF0FFA82326A4FE0325C4FB6C
:10451000EFF09FA62324A4FE0325C4FBEFF0DFAC3D
:104520002322A4FE0325C4FBEFF0BFA92320A4FE91
:10453000EFF0FFAD232EA4FC0327C4FD832744FE28
:10454000BA97232CF4FC0327C4FD832704FEBA97F3
:10455000232AF4FC832784FD9843C167F98F91CB0C
:10456000832784FD9843C177FD177D8F832784FDC2
:1045700098C3832784FD9843B7070200F98F81C74A
:104580008327C4FE19A0832784FE3E85EF10A01068
:104590002328A4FC032704FDBA878607BA9713D7FC
:1045A000F7410D8BBA9789873E87832784FB63CBBE
:1045B000E702032704FDBA878A07BA9713D7F741A2
:1045C0000D8BBA9789873E87832784FB634CF7005E
:1045D000832784FD9843B70704005D8F832784FDFC
:1045E00098C3B1A0832584FB032504FD75312326E0
:1045F000A4FC0327C4FCFD576302F7028327C4FC15
:1046000013975700B70710209387C756BA973E866F
:10461000832544FD032584FD253311A8832784FDCC
:104620009843B70704005D8F832784FD98C38327D1
:1046300084FD9843C1675D8F832784FD98C303255C
:10464000C4FBEFF07FAEAA873E85B6402644616189
:104650008280411122C60008B78700103E8532448F
:1046600041018280797106D622D40018232EA4FC41
:10467000232CB4FCF93FAA872326F4FE032784FDEC
:104680008327C4FEBA979C433E85B25022544561AD
:104690008280797106D622D40018232EA4FC232C04
:1046A000B4FC232AC4FC7537AA872326F4FE03270B
:1046B00084FD8327C4FEBA973E87832744FD1CC32D
:1046C0003E85B250225445618280011122CE0010F5
:1046D0002326A4FE0327C4FE938741816315F700B8
:1046E000B727011011A081473E8572440561828081
:1046F000011122CE00102326A4FE0327C4FE9387B7
:1047000041816317F700B70700809387873F11A0A7
:1047100081473E85724405618280011122CE0010DE
:104720002326A4FE2324B4FE0327C4FE93874181DD
:104730006317F700832784FE99E39D4769A2032747
:10474000C4FE938741816319F700032784FE8547E0
:104750006314F700A14785AA0327C4FE938741810C
:104760006319F700032784FE89476314F700A54700
:1047700099AA0327C4FE938741816319F700032791
:1047800084FE8D476314F700A94735AA0327C4FEAA
:10479000938741816319F700032784FE91476314CF
:1047A000F700AD470DA20327C4FE9387418163192B
:1047B000F700032784FE95476314F700B14721A251
:1047C0000327C4FE938741816319F700032784FE02
:1047D00099476314F700B547FDA00327C4FE9387EC
:1047E00041816319F700032784FE9D476314F70096
:1047F000B947D1A80327C4FE938741816319F70005
:10480000032784FEA1476314F700BD476DA8032763
:10481000C4FE938741816319F700032784FEA547EF
:104820006314F700C14745A00327C4FE9387418165
:104830006319F700032784FEA9476314F700C547EF
:1048400059A00327C4FE938741816319F70003270A
:1048500084FEAD476314F700C947B5A00327C4FE23
:10486000938741816319F700032784FEB1476314DE
:10487000F700CD4789A80327C4FE938741816319B8
:10488000F700032784FEB5476314F700D14725A836
:104890000327C4FE938741816319F700032784FE31
:1048A000B9476314F700D54739A80327C4FE938797
:1048B00041816319F700032784FEBD476314F700A5
:1048C000D94711A081473E85724405618280797184
:1048D00006D622D40018232EA4FC232CB4FC0325D6
:1048E000C4FDE533AA872326F4FE8327C4FE91077F
:1048F0009843832784FD8326C4FE9106D98F9CC2EA
:1049000081473E85B250225445618280797106D636
:1049100022D40018232EA4FC232CB4FC0325C4FDB0
:104920006D33AA872326F4FE8327C4FE91079C4398
:10493000032784FD1347F7FFBA860327C4FE110738
:10494000F58F1CC381473E85B25022544561828059
:10495000797106D622D40018232EA4FC0325C4FDA9
:10496000AD33AA872326F4FE8327C4FE9C433E85ED
:10497000B250225445618280797106D622D4001843
:10498000232EA4FC0325C4FD8933AA872326F4FE25
:104990008327C4FEB1079C433E85B2502254456133
:1049A0008280797106D622D40018232EA4FC232CF1
:1049B000B4FC0325C4FD113BAA872326F4FE8327FC
:1049C000C4FEA1079C43032784FD1347F7FFBA8663
:1049D0000327C4FE2107F58F1CC381473E85B250D3
:1049E000225445618280797106D622D40018232E84
:1049F000A4FC232CB4FC0325C4FDC139AA872326BB
:104A0000F4FE8327C4FEA1079843832784FD8326F1
:104A1000C4FEA106D98F9CC281473E85B250225464
:104A200045618280797106D622D40018232EA4FC19
:104A3000232CB4FC0325C4FDEFF03FC9AA8723262D
:104A4000F4FE8327C4FEB1079843832784FD8326A1
:104A5000C4FEB106D98F9CC281473E85B250225414
:104A600045618280797106D622D40018232EA4FCD9
:104A7000232CB4FC0325C4FDEFF03FC5AA872326F1
:104A8000F4FE8327C4FEB1079C43032784FD13472C
:104A9000F7FFBA860327C4FE3107F58F1CC3814791
:104AA0003E85B250225445618280797106D622D467
:104AB0000018232EA4FC232CB4FC0325C4FDEFF026
:104AC000DFC0AA872326F4FE8327C4FEB1079843DC
:104AD000832784FD8326C4FEB106B98F9CC281471B
:104AE0003E85B250225445618280797106D622D427
:104AF0000018232EA4FC232CB4FC232AC4FC032579
:104B0000C4FDEFF09FBCAA872326F4FE8327C4FED2
:104B10009387C7039843832784FD8326C4FE938627
:104B2000C603D98F9CC28327C4FE9387870398430B
:104B3000832744FD8326C4FE93868603D98F9CC2B7
:104B400081473E85B250225445618280797106D6F4
:104B500022D40018232EA4FC232CB4FC0325C4FD6E
:104B6000EFF0BFB6AA872326F4FE8327C4FE9387FF
:104B700087039C43032784FD1347F7FFBA86032767
:104B8000C4FE13078703F58F1CC381473E85B250CF
:104B9000225445618280797106D622D40018232ED2
:104BA000A4FC232CB4FC232AC4FC0325C4FDEFF091
:104BB000DFB1AA872326F4FE032744FD9D4763E95E
:104BC000E71C832744FD13972700B717102093870E
:104BD00087DFBA979C4382878327C4FEE1079C4303
:104BE000032784FD1347F7FFBA860327C4FE610736
:104BF000F58F1CC38327C4FE938707029C430327BA
:104C000084FD1347F7FFBA860327C4FE1307070284
:104C1000F58F1CC38327C4FE938787029C43032719
:104C200084FD1347F7FFBA860327C4FE13078702E4
:104C3000F58F1CC38327C4FE938707039C43032778
:104C400084FD1347F7FFBA860327C4FE1307070343
:104C5000F58F1CC335AA8327C4FEE1079843832739
:104C600084FD8326C4FEE106D98F9CC215A283274A
:104C7000C4FE938707029843832784FD8326C4FEDE
:104C800093860602D98F9CC221A28327C4FEE10726
:104C90009843832784FD8326C4FEE106D98F9CC2F6
:104CA0008327C4FE938707029843832784FD8326C6
:104CB000C4FE93860602D98F9CC2D9A88327C4FE5E
:104CC000938787029843832784FD8326C4FE9386B7
:104CD0008602D98F9CC26DA88327C4FE93870703E1
:104CE0009843832784FD8326C4FE93860603D98FC9
:104CF0009CC279A88327C4FE9387870298438327A1
:104D000084FD8326C4FE93868602D98F9CC28327A6
:104D1000C4FE938707039843832784FD8326C4FE3C
:104D200093860603D98F9CC2A5A08327C4FEE10702
:104D30009843832784FD8326C4FEE106D98F9CC255
:104D40008327C4FE938707029843832784FD832625
:104D5000C4FE93860602D98F9CC28327C4FE938724
:104D600087029843832784FD8326C4FE93868602A8
:104D7000D98F9CC28327C4FE938707039843832758
:104D800084FD8326C4FE93860603D98F9CC201004E
:104D900081473E85B250225445618280797106D6A2
:104DA00022D40018232EA4FC232CB4FC232AC4FCF8
:104DB0000325C4FDEFF07F91AA872326F4FE032785
:104DC00044FD9D4763EAE714832744FD13972700BA
:104DD000B7171020938787E1BA979C438287832770
:104DE000C4FEF1079843832784FD8326C4FEF106A1
:104DF000D98F9CC215A28327C4FE9387470298438C
:104E0000832784FD8326C4FE93864602D98F9CC2E5
:104E100021A28327C4FEF1079843832784FD8326BC
:104E2000C4FEF106D98F9CC28327C4FE9387470234
:104E30009843832784FD8326C4FE93864602D98F38
:104E40009CC2D9A88327C4FE9387C70298438327AF
:104E500084FD8326C4FE9386C602D98F9CC26DA8AA
:104E60008327C4FE938747039843832784FD8326C3
:104E7000C4FE93864603D98F9CC279A88327C4FEBB
:104E80009387C7029843832784FD8326C4FE9386B5
:104E9000C602D98F9CC28327C4FE938747039843D9
:104EA000832784FD8326C4FE93864603D98F9CC244
:104EB000A5A08327C4FEF1079843832784FD83269A
:104EC000C4FEF106D98F9CC28327C4FE9387470294
:104ED0009843832784FD8326C4FE93864602D98F98
:104EE0009CC28327C4FE9387C7029843832784FD0F
:104EF0008326C4FE9386C602D98F9CC28327C4FE34
:104F0000938747039843832784FD8326C4FE9386B3
:104F10004603D98F9CC2010081473E85B25022547E
:104F200045618280011106CE22CC00102326A4FE0A
:104F30000325C4FEEFF0CFFBAA873E85F240624412
:104F400005618280797106D622D40018232EA4FC34
:104F5000232CB4FC832584FD0325C4FDEFF0EFFB77
:104F60002326A4FE8327C4FE3E85B2502254456109
:104F70008280011122CE00102326A4FE0327C4FE46
:104F8000B71700809387079D6315F700B7370110A7
:104F900011A081473E85724405618280011122CEB5
:104FA00000102326A4FE0327C4FEB71700809387B2
:104FB000079D6317F700B70700809387873F11A00D
:104FC00081473E85724405618280011122CE001026
:104FD0002326A4FE0327C4FEB71700809387079DEE
:104FE0006314F700954711A081473E85724405611F
:104FF0008280011122CE00102326A4FE0327C4FEC6
:10500000B71700809387079D6317F700B7170080D5
:10501000938787A011A081473E85724405618280F5
:10502000011122CE00102326A4FE0327C4FEB717C9
:1050300000809387079D6315F7009387418111A036
:1050400081473E85724405618280011122CE0010A5
:105050002326A4FE0327C4FEB71700809387079D6D
:105060006314F700814711A081473E8572440561B2
:105070008280011122CE00102326A4FE0327C4FE45
:10508000B71700809387079D6315F700B7070300E4
:1050900011A081473E85724405618280011106CED0
:1050A00022CC00102326A4FE0325C4FEC53DAA87FA
:1050B0003E85F240624405618280011106CE22CC19
:1050C00000102326A4FE0325C4FE0137AA873E85CF
:1050D000F240624405618280797106D622D40018BC
:1050E000232EA4FC0325C4FD6935AA872326F4FEDC
:1050F0008327C4FEC1079C430327C4FE410793E7EF
:1051000017001CC381473E85B250225445618280FE
:10511000797106D622D40018232EA4FC0325C4FDE1
:10512000893DAA872326F4FE8327C4FEC1079C433A
:105130000327C4FE4107F99B1CC381473E85B2503B
:10514000225445618280797106D622D40018232E1C
:10515000A4FC0325C4FD313DAA872326F4FE832742
:10516000C4FEC1079C430327C4FE410793E7270001
:105170001CC381473E85B2502254456182807971BB
:1051800006D622D40018232EA4FC0325C4FDD53353
:10519000AA872326F4FE8327C4FEC1079C43032766
:1051A000C4FE4107F59B1CC381473E85B250225483
:1051B00045618280797106D622D40018232EA4FC82
:1051C0000325C4FD7D33AA872326F4FE8327C4FE6E
:1051D0009C43FD8393F7F70F3E85B25022544561FF
:1051E0008280797106D622D40018232EA4FC232CA9
:1051F000B4FC0325C4FDB53BAA872326F4FE832710
:10520000C4FEA1079843832784FD93960701B7073F
:105210000700F58F8326C4FEA106D98F9CC2814763
:105220003E85B250225445618280797106D622D4DF
:105230000018232EA4FC0325C4FD253BAA872326A2
:10524000F4FE8327C4FEA1079C43C1839D8B3E854A
:10525000B250225445618280797106D622D400185A
:10526000232EA4FC232CB4FC0325C4FDEFF07FD037
:10527000AA872326F4FE8327C4FEB1079843832719
:1052800084FD93960701B7070700F58F8326C4FEB8
:10529000B106D98F9CC281473E85B25022544561E8
:1052A0008280797106D622D40018232EA4FC03250F
:1052B000C4FDEFF01FCCAA872326F4FE8327C4FE8B
:1052C000B1079C43C1839D8B3E85B25022544561FA
:1052D0008280797106D622D40018232EA4FC232CB8
:1052E000B4FC0325C4FDEFF0DFC8AA872326F4FE33
:1052F00001000325C4FD7D3DAA87E5FF8327C4FE89
:10530000032784FD98C381473E85B25022544561EE
:105310008280797106D622D40018232EA4FC232C77
:10532000B4FC0325C4FDEFF0DFC4AA872326F4FEF6
:105330008327C4FE91079C432324F4FE832784FE25
:1053400063D70700832784FD7D5798C301A883276F
:1053500084FE13F7F70F832784FD98C381473E85AA
:10536000B250225445618280797122D60018232ED2
:10537000A4FC8327C4FD2326F4FE8327C4FEDC435C
:105380003E85325445618280797106D622D4001858
:10539000232EA4FC232CB4FC8327C4FD2326F4FE77
:1053A0000325C4FDEFF0FFBCAA872324F4FE0325E8
:1053B000C4FDEFF01FC42322A4FE032784FD83272E
:1053C000C4FED8C3832744FEB1CB832744FE9C434D
:1053D0009C43032544FE82972320A4FE032704FE5A
:1053E000832784FDB347F7021387F7FF832784FEE3
:1053F000E10798C3832784FEA1079C43032784FE0B
:10540000210793E717001CC3832784FEB1079C4341
:10541000032784FE310793E717001CC381473E85AD
:10542000B250225445618280397106DE22DC800050
:105430002326A4FC8327C4FC2326F4FE0325C4FCF6
:10544000EFF03FB3AA872324F4FE0325C4FCEFF05A
:105450005FBA2322A4FE832784FEA10798438327F3
:1054600084FEA107BE86B707F9FFFD17F98F9CC21E
:10547000832784FEA1079843832784FEA107BE8665
:10548000C167D98F9CC20100832784FED1079C434A
:10549000858BFDDB832784FEA1079C43898B99C301
:1054A000A54711A0A9472320F4FE832744FE9C436F
:1054B0009C43032544FE8297232EA4FC032704FE6D
:1054C0008327C4FDB307F7023E878327C4FEDC436E
:1054D000B357F702232CF4FC232A04FC39A0010063
:1054E000832744FD8507232AF4FC832744FD0327F3
:1054F00084FDE3C6E7FE01000100F2506254216121
:105500008280797106D622D40018232EA4FC83272A
:10551000C4FD2326F4FE0327C4FE8327C4FEDC4318
:10552000BE853A85E5240100B2502254456182804F
:10553000397106DE22DC80002326A4FC2324B4FC7F
:105540008327C4FC2326F4FE0325C4FCEFF07FAAC6
:105550002324A4FE0325C4FCEFF09FAC2322A4FE69
:10556000832784FEB9C78327C4FE3757102013074B
:10557000874298C78327C4FE0327C4FCD8C7832764
:10558000C4FEA107BE85032584FEAD2A8327C4FE81
:105590003757102013072750D8CB8327C4FE032783
:1055A000C4FC98CF8327C4FED107BE85032584FEA3
:1055B00051228327C4FE832584FC3E85812C8327CA
:1055C00044FE95CB0325C4FCEFF03FA8AA87232017
:1055D000F4FE0325C4FCEFF0DFA9AA87232EF4FC18
:1055E000832744FE9C43DC530326C4FD832504FE2D
:1055F000032544FE82970100F250625421618280AB
:10560000797106D622D40018232EA4FC8327C4FD6A
:105610002326F4FE31A88327C4FE9C430327C4FE3F
:1056200058433A8582978327C4FE9C472326F4FE7D
:105630008327C4FEEDF301000100B25022544561FE
:105640008280797122D60018232EA4FC232CB4FC6E
:10565000832784FD23A407008327C4FD81E78327D4
:1056600084FD35A08327C4FD2326F4FE31A08327C3
:10567000C4FE9C472326F4FE8327C4FE9C47E5FB1B
:105680008327C4FE032784FD98C78327C4FD3E8576
:10569000325445618280011106CE22CC00102326AF
:1056A000A4FE8327C4FE9C439C430325C4FE82972B
:1056B000AA873E85F240624405618280797106D6F0
:1056C00022D40018232EA4FC232CB4FC8327C4FD71
:1056D000DC433E8535378327C4FD9C43DC4383256B
:1056E00084FD0325C4FD82972326A4FE8327C4FDE1
:1056F0009C473E8531378327C4FE3E85B2502254F5
:1057000045618280011106CE22CC00102326A4FE22
:105710002324B4FE8327C4FEDC43832584FE3E8518
:105720000D372A878327C4FED8C30100F2406244A4
:1057300005618280011106CE22CC00102326A4FE32
:105740002324B4FE8327C4FE9C47832584FE3E8524
:10575000CD3D2A878327C4FE98C70100F2406244EA
:1057600005618280011106CE22CC00102326A4FE02
:105770008327C4FE9C43DC570325C4FE8297AA8777
:105780003E85F240624405618280011122CE001004
:105790002326A4FE8327C4FE99EBB71700800327B6
:1057A000C4FE0A07938787A1BA979C4311A081473B
:1057B0003E85724405618280011122CE0010F327DC
:1057C00040F12326F4FE8327C4FE3E857244056122
:1057D0008280011122CE00102326A4FE0100FDBF0D
:1057E000011106CE22CC00102326A4FE2324B4FEF1
:1057F0008327C4FE9C439C43832584FE0325C4FE6B
:1058000082970100F240624405618280011106CE58
:1058100022CC00102326A4FE2324B4FE8327C4FE3A
:105820009C43DC4B832584FE0325C4FE8297AA8714
:105830003E85F24062440561828000000000000065
:105840000000000000000000000000000000000058
:105850000000000000000000000000000000000048
:105860000000000000000000000000000000000038
:105870000000000000000000000000000000000028
:105880006FC0EFC96FC0AFC96FC06FC96FC00FCC19
:105890006FC0EFC86FC0AFC86FC06FC86FC0AFDA5E
:1058A0006FC0EFC76FC0AFC76FC06FC76FC02FC7E4
:1058B0006FC0EFC66FC0AFC66FC06FC66FC02FC6D8
:1058C0006FC07F8B6FC07F946FC09F9D6FC0BFA65E
:1058D0006FC0DFAF6FC0FFB86FC01FC26FC03FCBDC
:1058E0006FC05FD46FC07FDD6FC09FE66FC0BFEF3A
:1058F0006FC0DFF86FD0EF816FD00F8B6FD02F9418
:10590000011122CE00102326A4FE0327C4FEB707F0
:105910000080938707006317F700B727F400938789
:10592000074025A80327C4FEB70700809387C70058
:105930006317F700B7A74A049387072039A80327FE
:10594000C4FEB7070080938787016317F700B75736
:10595000E8019387078011A081473E857244056165
:105960008280011106CE22CC00102326A4FE03253E
:10597000C4FE7937AA873E85F24062440561828081
:10598000011106CE22CC00102326A4FE2324B4FE4F
:105990000325C4FEF937AA873E85F24062440561BB
:1059A0008280011106CE22CC00102326A4FE0325FE
:0459B000C4FE0535F7
:1059B800D00E10200000000000000000D00E1020C3
:1059C8000000000000000000D00E102000000000C1
:1059D800000000000000000060041020000000002B
:1059E80000000000000000000000000000000000AF
:1059F800000000000000000000000000000000009F
:105A0800000000000000000000000000000000008E
:105A1800000000000000000000000000000000007E
:105DA80000000000000000000805102000000000AE
:105DB80000000000000000000000000000000000DB
:105DC80000000000000000000000000000000000CB
:105DD80000000000000000000000000000000000BB
:105DE80000000000000000000000000000000000AB
:10638800740E102000000000000000000000000053
:1063980000000000000000000000000000000000F5
:1063A800B80E10200000000000000000C00E1020F1
:1063B8000000000000000000F00D102000000000A8
:1063C8000000000000000000240A00807C03102068
:1063D80000000000C404102000000000380E102047
:0463E800C80E1020AB
:0400000520100000C7
:00000001FF
